{
  "_format": "hh-sol-artifact-1",
  "contractName": "CrowdInvest",
  "sourceName": "contracts/CrowdInvest.sol",
  "abi": [
    {
      "inputs": [
        {
          "internalType": "address",
          "name": "_founder",
          "type": "address"
        },
        {
          "internalType": "string",
          "name": "_title",
          "type": "string"
        },
        {
          "internalType": "string",
          "name": "_description",
          "type": "string"
        },
        {
          "internalType": "uint256",
          "name": "_goal",
          "type": "uint256"
        },
        {
          "internalType": "uint256",
          "name": "_deadline",
          "type": "uint256"
        },
        {
          "internalType": "string",
          "name": "_image",
          "type": "string"
        }
      ],
      "name": "createProject",
      "outputs": [
        {
          "internalType": "uint256",
          "name": "",
          "type": "uint256"
        }
      ],
      "stateMutability": "nonpayable",
      "type": "function"
    },
    {
      "inputs": [
        {
          "internalType": "uint256",
          "name": "_id",
          "type": "uint256"
        }
      ],
      "name": "getInvestors",
      "outputs": [
        {
          "internalType": "address[]",
          "name": "",
          "type": "address[]"
        },
        {
          "internalType": "uint256[]",
          "name": "",
          "type": "uint256[]"
        }
      ],
      "stateMutability": "view",
      "type": "function"
    },
    {
      "inputs": [],
      "name": "getProjects",
      "outputs": [
        {
          "components": [
            {
              "internalType": "address",
              "name": "founder",
              "type": "address"
            },
            {
              "internalType": "string",
              "name": "title",
              "type": "string"
            },
            {
              "internalType": "string",
              "name": "description",
              "type": "string"
            },
            {
              "internalType": "uint256",
              "name": "goal",
              "type": "uint256"
            },
            {
              "internalType": "uint256",
              "name": "deadline",
              "type": "uint256"
            },
            {
              "internalType": "uint256",
              "name": "balance",
              "type": "uint256"
            },
            {
              "internalType": "string",
              "name": "image",
              "type": "string"
            },
            {
              "internalType": "address[]",
              "name": "investors",
              "type": "address[]"
            },
            {
              "internalType": "uint256[]",
              "name": "investment",
              "type": "uint256[]"
            }
          ],
          "internalType": "struct CrowdInvest.Project[]",
          "name": "",
          "type": "tuple[]"
        }
      ],
      "stateMutability": "view",
      "type": "function"
    },
    {
      "inputs": [
        {
          "internalType": "uint256",
          "name": "_id",
          "type": "uint256"
        }
      ],
      "name": "investToProject",
      "outputs": [],
      "stateMutability": "payable",
      "type": "function"
    },
    {
      "inputs": [],
      "name": "projectCount",
      "outputs": [
        {
          "internalType": "uint256",
          "name": "",
          "type": "uint256"
        }
      ],
      "stateMutability": "view",
      "type": "function"
    },
    {
      "inputs": [
        {
          "internalType": "uint256",
          "name": "",
          "type": "uint256"
        }
      ],
      "name": "projects",
      "outputs": [
        {
          "internalType": "address",
          "name": "founder",
          "type": "address"
        },
        {
          "internalType": "string",
          "name": "title",
          "type": "string"
        },
        {
          "internalType": "string",
          "name": "description",
          "type": "string"
        },
        {
          "internalType": "uint256",
          "name": "goal",
          "type": "uint256"
        },
        {
          "internalType": "uint256",
          "name": "deadline",
          "type": "uint256"
        },
        {
          "internalType": "uint256",
          "name": "balance",
          "type": "uint256"
        },
        {
          "internalType": "string",
          "name": "image",
          "type": "string"
        }
      ],
      "stateMutability": "view",
      "type": "function"
    }
  ],
  "bytecode": "0x6080604052600060015534801561001557600080fd5b50610f2c806100256000396000f3fe6080604052600436106100555760003560e01c8063107046bd1461005a5780631139de551461009657806336fbad26146100c457806399d985da146100e8578063dcc60128146100fd578063f64bc5081461011f575b600080fd5b34801561006657600080fd5b5061007a610075366004610958565b61013f565b60405161008d97969594939291906109b7565b60405180910390f35b3480156100a257600080fd5b506100b66100b1366004610958565b61031c565b60405161008d929190610a65565b3480156100d057600080fd5b506100da60015481565b60405190815260200161008d565b6100fb6100f6366004610958565b6103eb565b005b34801561010957600080fd5b506101126104b1565b60405161008d9190610aec565b34801561012b57600080fd5b506100da61013a366004610c9c565b61085e565b600060208190529081526040902080546001820180546001600160a01b03909216929161016b90610d55565b80601f016020809104026020016040519081016040528092919081815260200182805461019790610d55565b80156101e45780601f106101b9576101008083540402835291602001916101e4565b820191906000526020600020905b8154815290600101906020018083116101c757829003601f168201915b5050505050908060020180546101f990610d55565b80601f016020809104026020016040519081016040528092919081815260200182805461022590610d55565b80156102725780601f1061024757610100808354040283529160200191610272565b820191906000526020600020905b81548152906001019060200180831161025557829003601f168201915b50505050509080600301549080600401549080600501549080600601805461029990610d55565b80601f01602080910402602001604051908101604052809291908181526020018280546102c590610d55565b80156103125780601f106102e757610100808354040283529160200191610312565b820191906000526020600020905b8154815290600101906020018083116102f557829003601f168201915b5050505050905087565b6000818152602081815260409182902060078101805484518185028101850190955280855260609485949293600801929091849183018282801561038957602002820191906000526020600020905b81546001600160a01b0316815260019091019060200180831161036b575b50505050509150808054806020026020016040519081016040528092919081815260200182805480156103db57602002820191906000526020600020905b8154815260200190600101908083116103c7575b5050505050905091509150915091565b600081815260208181526040808320600781018054600180820183559186528486200180546001600160a01b0319163317905560088201805491820181558552928420349301839055805491519293909290916001600160a01b03169084908381818185875af1925050503d8060008114610482576040519150601f19603f3d011682016040523d82523d6000602084013e610487565b606091505b5050905080156104ab57828260050160008282546104a59190610d9f565b90915550505b50505050565b6060600060015467ffffffffffffffff8111156104d0576104d0610bf9565b60405190808252806020026020018201604052801561055957816020015b61054660405180610120016040528060006001600160a01b0316815260200160608152602001606081526020016000815260200160008152602001600081526020016060815260200160608152602001606081525090565b8152602001906001900390816104ee5790505b50905060005b60015481101561085857600081815260208181526040918290208251610120810190935280546001600160a01b03168352600181018054919392849290840191906105a990610d55565b80601f01602080910402602001604051908101604052809291908181526020018280546105d590610d55565b80156106225780601f106105f757610100808354040283529160200191610622565b820191906000526020600020905b81548152906001019060200180831161060557829003601f168201915b5050505050815260200160028201805461063b90610d55565b80601f016020809104026020016040519081016040528092919081815260200182805461066790610d55565b80156106b45780601f10610689576101008083540402835291602001916106b4565b820191906000526020600020905b81548152906001019060200180831161069757829003601f168201915b505050505081526020016003820154815260200160048201548152602001600582015481526020016006820180546106eb90610d55565b80601f016020809104026020016040519081016040528092919081815260200182805461071790610d55565b80156107645780601f1061073957610100808354040283529160200191610764565b820191906000526020600020905b81548152906001019060200180831161074757829003601f168201915b50505050508152602001600782018054806020026020016040519081016040528092919081815260200182805480156107c657602002820191906000526020600020905b81546001600160a01b031681526001909101906020018083116107a8575b505050505081526020016008820180548060200260200160405190810160405280929190818152602001828054801561081e57602002820191906000526020600020905b81548152602001906001019080831161080a575b50505050508152505083838151811061083957610839610db8565b602002602001018190525050808061085090610dce565b91505061055f565b50919050565b6001546000908152602081905260408120600481015442116108d95760405162461bcd60e51b815260206004820152602a60248201527f54686520646561646c696e652073686f756c64206265206461746520696e20746044820152696865206675747572652160b01b606482015260840160405180910390fd5b80546001600160a01b0319166001600160a01b038916178155600181016109008882610e36565b506002810161090f8782610e36565b5060038101859055600481018490556006810161092c8482610e36565b50600060058201819055600180549161094483610dce565b909155505060015498975050505050505050565b60006020828403121561096a57600080fd5b5035919050565b6000815180845260005b818110156109975760208185018101518683018201520161097b565b506000602082860101526020601f19601f83011685010191505092915050565b6001600160a01b038816815260e0602082018190526000906109db90830189610971565b82810360408401526109ed8189610971565b90508660608401528560808401528460a084015282810360c0840152610a138185610971565b9a9950505050505050505050565b600081518084526020808501945080840160005b83811015610a5a5781516001600160a01b031687529582019590820190600101610a35565b509495945050505050565b604081526000610a786040830185610a21565b82810360208481019190915284518083528582019282019060005b81811015610aaf57845183529383019391830191600101610a93565b5090979650505050505050565b600081518084526020808501945080840160005b83811015610a5a57815187529582019590820190600101610ad0565b60006020808301818452808551808352604092508286019150828160051b87010184880160005b83811015610beb57888303603f19018552815180516001600160a01b0316845261012088820151818a870152610b4b82870182610971565b9150508782015185820389870152610b638282610971565b606084810151908801526080808501519088015260a0808501519088015260c080850151888303828a01529193509150610b9d8382610971565b9250505060e08083015186830382880152610bb88382610a21565b925050506101008083015192508582038187015250610bd78183610abc565b968901969450505090860190600101610b13565b509098975050505050505050565b634e487b7160e01b600052604160045260246000fd5b600082601f830112610c2057600080fd5b813567ffffffffffffffff80821115610c3b57610c3b610bf9565b604051601f8301601f19908116603f01168101908282118183101715610c6357610c63610bf9565b81604052838152866020858801011115610c7c57600080fd5b836020870160208301376000602085830101528094505050505092915050565b60008060008060008060c08789031215610cb557600080fd5b86356001600160a01b0381168114610ccc57600080fd5b9550602087013567ffffffffffffffff80821115610ce957600080fd5b610cf58a838b01610c0f565b96506040890135915080821115610d0b57600080fd5b610d178a838b01610c0f565b9550606089013594506080890135935060a0890135915080821115610d3b57600080fd5b50610d4889828a01610c0f565b9150509295509295509295565b600181811c90821680610d6957607f821691505b60208210810361085857634e487b7160e01b600052602260045260246000fd5b634e487b7160e01b600052601160045260246000fd5b80820180821115610db257610db2610d89565b92915050565b634e487b7160e01b600052603260045260246000fd5b600060018201610de057610de0610d89565b5060010190565b601f821115610e3157600081815260208120601f850160051c81016020861015610e0e5750805b601f850160051c820191505b81811015610e2d57828155600101610e1a565b5050505b505050565b815167ffffffffffffffff811115610e5057610e50610bf9565b610e6481610e5e8454610d55565b84610de7565b602080601f831160018114610e995760008415610e815750858301515b600019600386901b1c1916600185901b178555610e2d565b600085815260208120601f198616915b82811015610ec857888601518255948401946001909101908401610ea9565b5085821015610ee65787850151600019600388901b60f8161c191681555b5050505050600190811b0190555056fea26469706673582212201b86c9e8b680f34635d4ea64ad682ab4805d8764bfbe194157c4d50884b973b564736f6c63430008110033",
  "linkReferences": {},
  "deployedLinkReferences": {}
}